{
  "contractName": "Queue",
  "abi": [
    {
      "constant": false,
      "inputs": [
        {
          "name": "data",
          "type": "bytes"
        }
      ],
      "name": "enqueue",
      "outputs": [],
      "payable": false,
      "stateMutability": "nonpayable",
      "type": "function"
    },
    {
      "constant": false,
      "inputs": [],
      "name": "dequeue",
      "outputs": [
        {
          "name": "data",
          "type": "bytes"
        }
      ],
      "payable": false,
      "stateMutability": "nonpayable",
      "type": "function"
    }
  ],
  "bytecode": "0x608060405260018055600060025534801561001957600080fd5b50610397806100296000396000f30060806040526004361061004c576000357c0100000000000000000000000000000000000000000000000000000000900463ffffffff16806384473fa814610051578063957908d1146100ba575b600080fd5b34801561005d57600080fd5b506100b8600480360381019080803590602001908201803590602001908080601f016020809104026020016040519081016040528093929190818152602001838380828437820191505050505050919291929050505061014a565b005b3480156100c657600080fd5b506100cf610187565b6040518080602001828103825283818151815260200191508051906020019080838360005b8381101561010f5780820151818401526020810190506100f4565b50505050905090810190601f16801561013c5780820380516001836020036101000a031916815260200191505b509250505060405180910390f35b6001600260008282540192505081905550806000806002548152602001908152602001600020908051906020019061018392919061027e565b5050565b60606001546002541015151561019c57600080fd5b60008060015481526020019081526020016000208054600181600116156101000203166002900480601f0160208091040260200160405190810160405280929190818152602001828054600181600116156101000203166002900480156102445780601f1061021957610100808354040283529160200191610244565b820191906000526020600020905b81548152906001019060200180831161022757829003601f168201915b505050505090506000806001548152602001908152602001600020600061026b91906102fe565b6001806000828254019250508190555090565b828054600181600116156101000203166002900490600052602060002090601f016020900481019282601f106102bf57805160ff19168380011785556102ed565b828001600101855582156102ed579182015b828111156102ec5782518255916020019190600101906102d1565b5b5090506102fa9190610346565b5090565b50805460018160011615610100020316600290046000825580601f106103245750610343565b601f0160209004906000526020600020908101906103429190610346565b5b50565b61036891905b8082111561036457600081600090555060010161034c565b5090565b905600a165627a7a723058203436b2905c6d92fc2bc39189bf3d2de1287b2af71189d9e0095b72af988d64c00029",
  "source": "pragma solidity ^0.4.18;\n\ncontract Queue {\n    mapping(uint256 => bytes) queue;\n    uint256 first = 1;\n    uint256 last = 0;\n\n    function enqueue(bytes data) public {\n        last += 1;\n        queue[last] = data;\n    }\n\n    function dequeue() public returns (bytes data) {\n        require(last >= first);  // non-empty queue\n\n        data = queue[first];\n\n        delete queue[first];\n        first += 1;\n    }\n}",
  "sourcePath": "/Users/master/WebstormProjects/fr8-token/contracts/Queue.sol",
  "compiler": {
    "name": "solc",
    "version": "0.4.23+commit.124ca40d.Emscripten.clang"
  },
  "schemaVersion": "2.0.0",
  "updatedAt": "2018-05-14T14:25:40.632Z"
}