{
  "contractName": "ShipmentContract",
  "abi": [
    {
      "constant": true,
      "inputs": [],
      "name": "currentState",
      "outputs": [
        {
          "name": "",
          "type": "string"
        }
      ],
      "payable": false,
      "stateMutability": "view",
      "type": "function"
    },
    {
      "constant": true,
      "inputs": [],
      "name": "owner",
      "outputs": [
        {
          "name": "",
          "type": "address"
        }
      ],
      "payable": false,
      "stateMutability": "view",
      "type": "function"
    },
    {
      "constant": false,
      "inputs": [
        {
          "name": "newOwner",
          "type": "address"
        }
      ],
      "name": "transferOwnership",
      "outputs": [],
      "payable": false,
      "stateMutability": "nonpayable",
      "type": "function"
    },
    {
      "inputs": [
        {
          "name": "_shipmentValue",
          "type": "uint256"
        },
        {
          "name": "_weightLbs",
          "type": "uint256"
        },
        {
          "name": "_numPieces",
          "type": "uint256"
        },
        {
          "name": "_poNumber",
          "type": "string"
        },
        {
          "name": "_shipmentId",
          "type": "uint256"
        },
        {
          "name": "_totalCost",
          "type": "uint256"
        },
        {
          "name": "_beneficiary",
          "type": "address"
        }
      ],
      "payable": false,
      "stateMutability": "nonpayable",
      "type": "constructor"
    },
    {
      "anonymous": false,
      "inputs": [
        {
          "indexed": false,
          "name": "prevString",
          "type": "string"
        },
        {
          "indexed": false,
          "name": "currString",
          "type": "string"
        }
      ],
      "name": "ChangeStatus",
      "type": "event"
    },
    {
      "anonymous": false,
      "inputs": [
        {
          "indexed": true,
          "name": "previousOwner",
          "type": "address"
        },
        {
          "indexed": true,
          "name": "newOwner",
          "type": "address"
        }
      ],
      "name": "OwnershipTransferred",
      "type": "event"
    },
    {
      "constant": false,
      "inputs": [],
      "name": "nextState",
      "outputs": [
        {
          "name": "shipmentState",
          "type": "string"
        }
      ],
      "payable": false,
      "stateMutability": "nonpayable",
      "type": "function"
    }
  ],
  "bytecode": "0x60806040523480156200001157600080fd5b5060405162000da838038062000da883398101806040528101908080519060200190929190805190602001909291908051906020019092919080518201929190602001805190602001909291908051906020019092919080519060200190929190505050336000806101000a81548173ffffffffffffffffffffffffffffffffffffffff021916908373ffffffffffffffffffffffffffffffffffffffff16021790555060056003819055506040805190810160405280600f81526020017f534849504d454e545f424f4f4b454400000000000000000000000000000000008152506001600080815260200190815260200160002090805190602001906200011b92919062000367565b506040805190810160405280601081526020017f434152524945525f41535349474e454400000000000000000000000000000000815250600160006001815260200190815260200160002090805190602001906200017b92919062000367565b506040805190810160405280601781526020017f454e5f524f5554455f544f5f44455354494e4154494f4e00000000000000000081525060016000600281526020019081526020016000209080519060200190620001db92919062000367565b506040805190810160405280601681526020017f415252495645445f41545f44455354494e4154494f4e00000000000000000000815250600160006003815260200190815260200160002090805190602001906200023b92919062000367565b506040805190810160405280601281526020017f534849504d454e545f44454c4956455245440000000000000000000000000000815250600160006004815260200190815260200160002090805190602001906200029b92919062000367565b50600160048190555060016000600454815260200190815260200160002060059080546001816001161561010002031660029004620002dc929190620003ee565b5086600681905550856007819055508460088190555083600990805190602001906200030a92919062000367565b5082600a8190555081600b8190555080600260006101000a81548173ffffffffffffffffffffffffffffffffffffffff021916908373ffffffffffffffffffffffffffffffffffffffff16021790555050505050505050620004a4565b828054600181600116156101000203166002900490600052602060002090601f016020900481019282601f10620003aa57805160ff1916838001178555620003db565b82800160010185558215620003db579182015b82811115620003da578251825591602001919060010190620003bd565b5b509050620003ea91906200047c565b5090565b828054600181600116156101000203166002900490600052602060002090601f016020900481019282601f1062000429578054855562000469565b828001600101855582156200046957600052602060002091601f016020900482015b82811115620004685782548255916001019190600101906200044b565b5b5090506200047891906200047c565b5090565b620004a191905b808211156200049d57600081600090555060010162000483565b5090565b90565b6108f480620004b46000396000f300608060405260043610610062576000357c0100000000000000000000000000000000000000000000000000000000900463ffffffff1680630c3f6acf1461006757806314007c6d146100f75780638da5cb5b14610187578063f2fde38b146101de575b600080fd5b34801561007357600080fd5b5061007c610221565b6040518080602001828103825283818151815260200191508051906020019080838360005b838110156100bc5780820151818401526020810190506100a1565b50505050905090810190601f1680156100e95780820380516001836020036101000a031916815260200191505b509250505060405180910390f35b34801561010357600080fd5b5061010c6102bf565b6040518080602001828103825283818151815260200191508051906020019080838360005b8381101561014c578082015181840152602081019050610131565b50505050905090810190601f1680156101795780820380516001836020036101000a031916815260200191505b509250505060405180910390f35b34801561019357600080fd5b5061019c610543565b604051808273ffffffffffffffffffffffffffffffffffffffff1673ffffffffffffffffffffffffffffffffffffffff16815260200191505060405180910390f35b3480156101ea57600080fd5b5061021f600480360381019080803573ffffffffffffffffffffffffffffffffffffffff169060200190929190505050610568565b005b60058054600181600116156101000203166002900480601f0160208091040260200160405190810160405280929190818152602001828054600181600116156101000203166002900480156102b75780601f1061028c576101008083540402835291602001916102b7565b820191906000526020600020905b81548152906001019060200180831161029a57829003601f168201915b505050505081565b6060806102d860016003546106bd90919063ffffffff16565b6004541015156102e757600080fd5b6001600060045481526020019081526020016000208054600181600116156101000203166002900480601f0160208091040260200160405190810160405280929190818152602001828054600181600116156101000203166002900480156103905780601f1061036557610100808354040283529160200191610390565b820191906000526020600020905b81548152906001019060200180831161037357829003601f168201915b505050505090506103ad60016004546106d690919063ffffffff16565b600481905550600160006004548152602001908152602001600020600590805460018160011615610100020316600290046103e992919061081c565b5061040060016003546106bd90919063ffffffff16565b600454141561041557610414600b546106f4565b5b7f176703c2ef60ed2c86f0026fd2db6cdf0385a643e57812c97cc09bfd96be17ee816005604051808060200180602001838103835285818151815260200191508051906020019080838360005b8381101561047d578082015181840152602081019050610462565b50505050905090810190601f1680156104aa5780820380516001836020036101000a031916815260200191505b5083810382528481815460018160011615610100020316600290048152602001915080546001816001161561010002031660029004801561052c5780601f106105015761010080835404028352916020019161052c565b820191906000526020600020905b81548152906001019060200180831161050f57829003601f168201915b505094505050505060405180910390a18191505090565b6000809054906101000a900473ffffffffffffffffffffffffffffffffffffffff1681565b6000809054906101000a900473ffffffffffffffffffffffffffffffffffffffff1673ffffffffffffffffffffffffffffffffffffffff163373ffffffffffffffffffffffffffffffffffffffff161415156105c357600080fd5b600073ffffffffffffffffffffffffffffffffffffffff168173ffffffffffffffffffffffffffffffffffffffff16141515156105ff57600080fd5b8073ffffffffffffffffffffffffffffffffffffffff166000809054906101000a900473ffffffffffffffffffffffffffffffffffffffff1673ffffffffffffffffffffffffffffffffffffffff167f8be0079c531659141344cd1fd0a4f28419497f9722a3daafe3b4186f6b6457e060405160405180910390a3806000806101000a81548173ffffffffffffffffffffffffffffffffffffffff021916908373ffffffffffffffffffffffffffffffffffffffff16021790555050565b60008282111515156106cb57fe5b818303905092915050565b60008082840190508381101515156106ea57fe5b8091505092915050565b6000738049f53d94ecf5d1e669f80977eecf075b46160890508073ffffffffffffffffffffffffffffffffffffffff1663a9059cbb600260009054906101000a900473ffffffffffffffffffffffffffffffffffffffff16670de0b6b3a764000085026040518363ffffffff167c0100000000000000000000000000000000000000000000000000000000028152600401808373ffffffffffffffffffffffffffffffffffffffff1673ffffffffffffffffffffffffffffffffffffffff16815260200182815260200192505050602060405180830381600087803b1580156107dc57600080fd5b505af11580156107f0573d6000803e3d6000fd5b505050506040513d602081101561080657600080fd5b8101908080519060200190929190505050505050565b828054600181600116156101000203166002900490600052602060002090601f016020900481019282601f106108555780548555610892565b8280016001018555821561089257600052602060002091601f016020900482015b82811115610891578254825591600101919060010190610876565b5b50905061089f91906108a3565b5090565b6108c591905b808211156108c15760008160009055506001016108a9565b5090565b905600a165627a7a72305820485169fb71a8f83551ff81a89dea303e57327eedb69692f47d990f943762a6c70029",
  "source": "pragma solidity ^0.4.18;\n\nimport './deps/Ownable.sol';\nimport './deps/SafeMath.sol';\nimport '../node_modules/zeppelin-solidity/contracts/token//ERC20/ERC20Basic.sol';\nimport '../node_modules/zeppelin-solidity/contracts/token/ERC20/SafeERC20.sol';\n\ncontract ShipmentContract is Ownable {\n  using SafeMath for uint;\n\n  mapping(uint256 => string) possibleStates;\n  address beneficiary;\n  uint256 numStates;\n  uint256 currentStateIndex;\n  string public currentState;\n  uint256 shipmentValue;\n  uint256 weightLbs; \n  uint256 numPieces; \n  string poNumber; \n  uint256 shipmentId; \n  uint256 totalCost;\n\n  event ChangeStatus(string prevString, string currString);\n\n  /**\n  Deploy args: all uint256\n  \n  3500,12000,6,18504502,49504020,400\n  */\n\n  function settlePayments(uint256 amount) private {\n    ERC20 token = ERC20(0x8049F53D94eCf5D1e669f80977eecf075B461608);\n    token.transfer(beneficiary, amount*(10**18));\n  }\n\n  function ShipmentContract(uint256 _shipmentValue, uint256 _weightLbs, uint256 _numPieces, string _poNumber, uint256 _shipmentId, uint256 _totalCost, address _beneficiary) {\n    numStates = 5;\n    possibleStates[0] = \"SHIPMENT_BOOKED\";\n    possibleStates[1] = \"CARRIER_ASSIGNED\";\n    possibleStates[2] = \"EN_ROUTE_TO_DESTINATION\";\n    possibleStates[3] = \"ARRIVED_AT_DESTINATION\";\n    possibleStates[4] = \"SHIPMENT_DELIVERED\";\n\n    currentStateIndex = 1;\n    currentState = possibleStates[currentStateIndex];\n    shipmentValue = _shipmentValue;\n    weightLbs = _weightLbs; \n    numPieces = _numPieces; \n    poNumber = _poNumber; \n    shipmentId = _shipmentId;  \n    totalCost = _totalCost;\n    beneficiary = _beneficiary;\n  }\n\n  function nextState() public returns (string shipmentState) {\n    require(currentStateIndex < (numStates.sub(1)));\n    string memory prevState = possibleStates[currentStateIndex];\n    currentStateIndex = currentStateIndex.add(1);\n    currentState = possibleStates[currentStateIndex];\n    if (currentStateIndex == (numStates.sub(1))) {\n      settlePayments(totalCost);\n    }\n    ChangeStatus(prevState, currentState);\n    return shipmentState;\n  }\n}\n",
  "sourcePath": "/Users/master/WebstormProjects/fr8-token/contracts/ShipmentContract.sol",
  "compiler": {
    "name": "solc",
    "version": "0.4.23+commit.124ca40d.Emscripten.clang"
  },
  "schemaVersion": "2.0.0",
  "updatedAt": "2018-05-23T09:12:29.072Z"
}